:1010000097110000938101131721000013018194AF
:10101000170500001305C57A970500009385457AEA
:101020001386C18163FCC5008322050023A05500FF
:101030001305450093854500E3E8C5FE1385C1818E
:10104000938501826378B5002320050013054500D0
:10105000E36CB5FEEF000001EF00C0626F0000001E
:0410600067800000A5
:10106400130101FF23248100232021011704000020
:101074001304C4741709000013094974330989401F
:10108400232611002322910013592940630E0900DD
:101094009304000083270400938414001304440081
:1010A400E7800700E31899FE170400001304047195
:1010B400170900001309897033098940135929401D
:1010C400630E090093040000832704009384140032
:1010D40013044400E7800700E31899FE8320C1004D
:1010E4000324810083244100032901001301010129
:1010F4006780000003254500135505011375F50F9E
:1011040067800000130101FF2326110023248100BE
:1011140023229100130405009384050013050400A1
:10112400EFF05FFDE30C05FE232094008320C10053
:10113400032481008324410013010101678000001E
:10114400B7470F0093870724B3D5F502B7C700004C
:10115400938787FF3306F600832706003385A502AD
:101164003305F50083270600B307F540E3DC07FEEB
:1011740067800000130101FF23261100232481004E
:1011840023229100930405001304C0016F00800220
:10119400B3D7840013F7F700B71700009387C77B12
:1011A400B387E70083C50700370501F8EFF09FF523
:1011B4001304C4FFE35E04FC8320C1000324810004
:1011C400832441001301010167800000130101FF22
:1011D4002326110023248100232291009304050077
:1011E4001304C0016F008002B3D7840013F7F70023
:1011F400B71700009387077DB387E70083C507000F
:10120400370501F8EFF01FF01304C4FFE35E04FC9C
:101214008320C100032481008324410013010101C0
:1012240067800000130101FF232611009375F50F59
:10123400370501F8EFF01FED8320C1001301010110
:1012440067800000130101FF23261100232481007D
:101254001304050083450400638A05001304140085
:10126400370501F8EFF01FEA6FF0DFFE8320C100BD
:10127400032481001301010167800000130101FDB3
:1012840023261102232481022322910293040500C0
:1012940063460500130401006F00C0021305D00269
:1012A400EFF05FF8B30490406FF0DFFE1307A00087
:1012B400B3E7E402938707032300F400B3C4E40212
:1012C40013041400E39404FE93070100E300F4FE06
:1012D4006F0000011304F4FF03450400EFF09FF4D2
:1012E40093070100E318F4FE8320C1020324810262
:1012F400832441021301010367800000130101FFED
:1013040023261100130700009307700063C0E7024F
:1013140093162700930700FFB397D700B377F50020
:1013240063860700130717006FF01FFEEFF01FEA34
:101334008320C1001301010167800000130101FF34
:1013440023261100130700009307700063C0E7020F
:1013540093162700930700FFB397D700B377F500E0
:1013640063860700130717006FF01FFEEFF09FE07E
:101374008320C100130101016780000093952500BB
:10138400B385A50023A0C500678000009395750070
:101394003385A50093555600939525003305B50074
:1013A400B72500003305B50093071000B397C700B5
:1013B400638A060003260500B3E7C7002320F5006F
:1013C400678000000326050093C7F7FFB3F7C70043
:1013D4002320F500678000009395C500B385A50020
:1013E40037052000B385A50023A0C5006780000051
:1013F4009395C500B385A500370520001305450066
:10140400B385A50003A50500678000009395C5007A
:10141400B385A5003705200013054500B385A50055
:1014240023A0C50067800000130101FC232E1100D6
:10143400232C8100232A9100930405002322B10266
:101444002324C1022326D1022328E102232AF10204
:10145400232C0103232E1103930741022326F100B9
:10146400130400006F00C0018327C10013874700E5
:101474002326E10003A50700EFF0DFDA13041400CC
:10148400B387840003C507006302050C9307500269
:101494006306F506EFF01FD96FF05FFE8327C100E6
:1014A400138747002326E10003A50700EFF09FD927
:1014B4006FF0DFFC8327C100138747002326E10078
:1014C40003A50700EFF09FDB6FF05FFB8327C100EC
:1014D400138747002326E10003A50700EFF01FE66A
:1014E4006FF0DFF98327C100138747002326E1004B
:1014F40003A50700EFF09FE06FF05FF813041400FA
:10150400B387840083C70700E38A07F6130730060E
:10151400E38CE7F413073007E382E7F81307400688
:10152400E38AE7F813078005E382E7FA13078007E5
:10153400E38AE7FA13076006E392E7FC3715000035
:101544001305457EEFF01FD06FF05FF38320C101D8
:1015540003248101832441011301010467800000F5
:10156400130101FF23261100130600009305000058
:101574003705C0F8EFF05FE6930610001306C000CD
:10158400930500003705C0F8EFF05FE01306100084
:101594009305C0003705C0F8EFF05FDEB75701F8D8
:1015A4001307100023A0E702B71700009387C77240
:1015B40073905730B71700009387078073A04730A4
:1015C400B727000093878780739007308320C1007A
:1015D4001301010167800000130101FF232611009C
:1015E4003725000013050583EFF01FE46F000000AA
:1015F400130101FF23261100232481009305000019
:101604003705C0F8EFF0DFDE1304050063080502B8
:101614009307C0006312F4023725000013054584C4
:10162400EFF09FE013060400930500003705C0F8AF
:10163400EFF0DFDD6FF09FFCEFF01FFA8320C100B5
:10164400032481001301010167800000130101FFDD
:1016540023261100F327203463D2070213F7F7007F
:101664009307B000631AF700EFF09FF88320C100DE
:101674001301010167800000EFF01FF6EFF0DFF5C2
:10168400130101FF232611002324810037250000C4
:1016940013050586EFF05FD937250000130545874C
:1016A400EFF09FD8B75701F81307E00023A4E70031
:1016B40023A20700130400006F000003375701F84A
:1016C4008327470093C7E7002322F7003706B0F8C3
:1016D400B7E5F50593850510378501001305056AFF
:1016E400EFF01FA6130414009307700CE3D887FCD3
:1016F4003725000013050589EFF01FD337250000B7
:101704001305C58AEFF05FD2372500001305C58D98
:10171400EFF09FD1372500001305C590EFF0DFD01F
:10172400EFF01FE46F000000130101FC23201100FF
:101734002322510023246100232671002328A100C1
:10174400232AB100232CC100232ED1002320E1023F
:101754002322F10223240103232611032328C10396
:10176400232AD103232CE103232EF103EFF01FEEF0
:101774008320010083224100032381008323C100CD
:101784000325010183254101032681018326C1012B
:101794000327010283274102032881028328C1020F
:1017A400032E0103832E4103032F8103832FC103DF
:0817B400130101047300203051
:1017BC00303132333435363738394142434445467B
:1017CC00000000003031323334353637383961623D
:1017DC0063646566000000003C466C6F6174696E62
:1017EC006720706F696E74207072696E74696E67B1
:1017FC00206E6F7420656E61626C652E20506C6576
:10180C0061736520456E61626C652069742061743A
:10181C00206273702E682066697273742E2E2E3EB1
:10182C00000000000D0A2A2A2A2043524153482066
:10183C002A2A2A0D0A0000006770696F203020697F
:10184C006E7465727275707420726F7574696E65E2
:10185C00200D0A006770696F20302064656D6F2061
:10186C0021200D0A000000006F6E626F617264200F
:10187C004C45447320626C696E6B696E67200D0A6F
:10188C00000000006770696F203020696E7465720B
:10189C00727570742064656D6F2021200D0A000034
:1018AC00546931383020707265737320616E642016
:1018BC0072656C65617365206F6E626F6172642016
:1018CC00627574746F6E20737734200D0A000000FB
:1018DC005469363020707265737320616E642072A7
:1018EC00656C65617365206F6E626F6172642062F6
:1018FC007574746F6E20737736200D0A000000002B
:10190C005431323020707265737320616E642072B2
:10191C00656C65617365206F6E626F6172642062C5
:10192C007574746F6E20737737200D0A00000000F9
:0E193C0000000000000000000000000000009D
:0400000300001000E9
:00000001FF
