:1010000097110000938101F0171100001301817105
:10101000170500001305C56297050000938545621A
:101020001386C18163FCC5008322050023A05500FF
:101030001305450093854500E3E8C5FE1385C1818E
:10104000938501826378B5002320050013054500D0
:10105000E36CB5FEEF000001EF0040536F000000AD
:0410600067800000A5
:10106400130101FF23248100232021011704000020
:101074001304C45C170900001309495C330989404F
:10108400232611002322910013592940630E0900DD
:101094009304000083270400938414001304440081
:1010A400E7800700E31899FE1704000013040459AD
:1010B4001709000013098958330989401359294035
:1010C400630E090093040000832704009384140032
:1010D40013044400E7800700E31899FE8320C1004D
:1010E4000324810083244100032901001301010129
:1010F4006780000003254500135505011375F50F9E
:1011040067800000130101FF2326110023248100BE
:1011140023229100130405009384050013050400A1
:10112400EFF05FFDE30C05FE232094008320C10053
:10113400032481008324410013010101678000001E
:10114400130101FF2326110023248100232291008F
:10115400930405001304C0016F008002B3D7840018
:1011640013F7F700B71700009387C763B387E70047
:1011740083C50700370501F8EFF0DFF81304C4FF57
:10118400E35E04FC8320C100032481008324410026
:101194001301010167800000130101FF23261100E0
:1011A4002324810023229100930405001304C00129
:1011B4006F008002B3D7840013F7F700B71700005D
:1011C40093870765B387E70083C50700370501F8F0
:1011D400EFF05FF31304C4FFE35E04FC8320C1005B
:1011E400032481008324410013010101678000006E
:1011F400130101FF232611009375F50F370501F83C
:10120400EFF05FF08320C10013010101678000004B
:10121400130101FF23261100232481001304050078
:1012240083450400638A050013041400370501F89C
:10123400EFF05FED6FF0DFFE8320C1000324810037
:101244001301010167800000130101FD232611022F
:10125400232481022322910293040500634605009E
:10126400130401006F00C0021305D002EFF05FF811
:10127400B30490406FF0DFFE1307A000B3E7E4026D
:10128400938707032300F400B3C4E4021304140097
:10129400E39404FE93070100E300F4FE6F000001F1
:1012A4001304F4FF03450400EFF09FF493070100D7
:1012B400E318F4FE8320C102032481028324410243
:1012C4001301010367800000130101FF23261100AD
:1012D400130700009307700063C0E702931627000A
:1012E400930700FFB397D700B377F5006386070031
:1012F400130717006FF01FFEEFF01FEA8320C100F1
:101304001301010167800000130101FF232611006E
:10131400130700009307700063C0E70293162700C9
:10132400930700FFB397D700B377F50063860700F0
:10133400130717006FF01FFEEFF09FE08320C1003A
:1013440013010101678000009395C500B385A500D2
:1013540037052000B385A50023A0C50067800000E1
:101364009395C500B385A5003705200013054500F6
:10137400B385A50003A5050067800000130101FCE7
:10138400232E1100232C8100232A910093040500AD
:101394002322B1022324C1022326D1022328E102FD
:1013A400232AF102232C0103232E11039307410264
:1013B4002326F100130400006F00C0018327C1003D
:1013C400138747002326E10003A50700EFF05FE23F
:1013D40013041400B387840003C507006302050CDB
:1013E400930750026306F506EFF09FE06FF05FFE8F
:1013F4008327C100138747002326E10003A50700C4
:10140400EFF01FE16FF0DFFC8327C1001387470073
:101414002326E10003A50700EFF01FE36FF05FFB55
:101424008327C100138747002326E10003A5070093
:10143400EFF09FED6FF0DFF98327C10013874700BA
:101444002326E10003A50700EFF01FE86FF05FF823
:1014540013041400B387840083C70700E38A07F6E4
:1014640013073006E38CE7F413073007E382E7F849
:1014740013074006E38AE7F813078005E382E7FAD7
:1014840013078007E38AE7FA13076006E392E7FC91
:101494003715000013054566EFF09FD76FF05FF333
:1014A4008320C10103248101832441011301010428
:1014B40067800000130101FF232611003715000087
:1014C4001305056BEFF09FEB6F000000130101FFA4
:1014D40023261100371500001305C56BEFF01FEA32
:1014E4006F000000130101FF232611001306000002
:1014F400930500003705C0F8EFF01FE5B7170000AB
:101504009387C75A73905730B717000093870780A3
:1015140073A04730B7270000938787807390073004
:101524008320C1001301010167800000130101FF42
:1015340023261100930500003705C0F8EFF05FE2A1
:10154400631805008320C1001301010167800000B6
:10155400EFF0DFF7130101FF23261100F3272034F6
:1015640063D2070213F7F7009307B000631AF7007A
:10157400EFF0DFFB8320C10013010101678000004D
:10158400EFF0DFF4EFF09FF4130101FF23261100C5
:10159400371500001305056DEFF05FDE8320C100F1
:1015A4001301010167800000130101FC23201100D5
:1015B4002322510023246100232671002328A10043
:1015C400232AB100232CC100232ED1002320E102C1
:1015D4002322F10223240103232611032328C10318
:1015E400232AD103232CE103232EF103EFF09FF6EA
:1015F4008320010083224100032381008323C1004F
:101604000325010183254101032681018326C101AC
:101614000327010283274102032881028328C10290
:10162400032E0103832E4103032F8103832FC10360
:081634001301010473002030D2
:10163C0030313233343536373839414243444546FC
:10164C0000000000303132333435363738396162BE
:10165C0063646566000000003C466C6F6174696EE3
:10166C006720706F696E74207072696E74696E6732
:10167C00206E6F7420656E61626C652E20506C65F7
:10168C0061736520456E61626C65206974206174BC
:10169C00206273702E682066697273742E2E2E3E33
:1016AC00000000004661696C656421200D0A000091
:1016BC000D0A2A2A2A204352415348202A2A2A0D4D
:1016CC000A0000006178693420736C6176652069CA
:1016DC00732064697361626C65642C20706C656145
:1016EC00736520656E61626C6520697420746F206F
:1016FC0072756E2074686973206170702E200D0AEB
:0E170C000000000000000000000000000000CF
:0400000300001000E9
:00000001FF
